:020000040800F2
:1000000000280020E91300084113000847130008E6
:100010004D13000853130008591300080000000096
:100020000000000000000000000000005F13000856
:100030006B1300080000000077130008831300080A
:10004000311400083114000831140008311400087C
:10005000311400083114000831140008311400086C
:10006000311400083114000831140008311400085C
:10007000311400083114000831140008311400084C
:10008000311400083114000831140008311400083C
:10009000311400083114000831140008311400082C
:1000A000311400083114000831140008311400081C
:1000B00091130008311400080000000031140008FA
:1000C0003114000800000000000000003114000896
:1000D0000000000031140008311400080000000086
:1000E0003114000831140008311400080000000029
:1000F0000000000000000000000000000000000000
:0C01000000000000000000005FF808F1A3
:10010C0010B5054C237833B9044B13B10448AFF345
:10011C0000800123237010BD4C0000200000000063
:10012C00302A000808B5034B1BB103490348AFF351
:10013C00008008BD0000000050000020302A00089C
:10014C0080B586B000AF002000F0E4F90346002B28
:10015C0000F09880924B1B680133914A1360904BCE
:10016C001B68042B02DD8E4B01221A6000F0B2FCDE
:10017C0000F0BCFC00F0C6FC894B1B68184600F074
:10018C00E5FB874B1B68013B032B7CD801A252F883
:10019C0023F000BFB1010008BB010008EF0100080B
:1001AC002302000800F03AFC00F0B8FC6BE000F011
:1001BC001BFC00F04DFC00F0D9F90346794A82FB98
:1001CC0003129211DB17D31A774A1360764B1B6814
:1001DC00184600F085FA744B1B68184600F01CFB9F
:1001EC0051E000F001FC00F049FC00F0D7F90346A7
:1001FC006C4A82FB03129211DB17D31A6A4A136002
:10020C00694B1B68184600F06BFA674B1B68184665
:10021C0000F002FB37E000F0E7FB00F045FC00F0DB
:10022C00A5F903465F4A82FB03129211DB17D31A1E
:10023C00FB6000F0B3F903465A4A82FB0312921199
:10024C00DB17D31ABB60FA68BB68D31A7B617B6976
:10025C00002B01DC01237B617B694FF47A7202FB7A
:10026C0003F3184600F0A4F94F4A7B6913604E4B18
:10027C001B68184600F034FA4B4B1B68184600F00C
:10028C00CBFA00E000BF012000F044F90346002B3C
:10029C002AD0434B1B68012B26DD414B1B68042BDA
:1002AC0022DC414B1B6801333F4A13603E4B1B68F9
:1002BC00632B02DD3C4B01221A60394B1B68042B6B
:1002CC0008D1394B1B684FF47A7202FB03F31846C2
:1002DC0000F06EF9344B1B68184600F001FA324BF3
:1002EC001B68184600F098FA022000F013F9034638
:1002FC00002B50D000F03AF9786000F04FF93860DC
:10030C0000F064F93861264B1B68022B17D1264B81
:10031C001B684FF47A7202FB03F37B60786800F081
:10032C0017F97A683B68D31A3B613B69002B02DCF6
:10033C004FF47A733B61386900F03AF92BE0184BB3
:10034C001B68032B17D1184B1B684FF47A7202FBF6
:10035C0003F33B60386800F013F97A683B68D31AF2
:10036C003B613B69002B02DC4FF47A733B613869CB
:10037C0000F01EF90FE00A4B1B68042B0BD100F0A8
:10038C000DF9386000F022F938613A683B69134482
:10039C00184600F0DDF800BF1837BD4680BD00BF21
:1003AC0000000020D34D62106800002080B500AF23
:1003BC00012000F0CBFA00F031FB00F0AFFB00BFE6
:1003CC0080BD000080B582B000AF00237B6086E06A
:1003DC00474A7B6813441978464A7B6813440A469B
:1003EC001A70454A7B6813441978414A7B68134458
:1003FC000A461A70414A7B6852F8232040497B68B0
:10040C0031F813301946104601F0F8FA0346194634
:10041C00394A7B6813440A461A70374A7B6813447E
:10042C001A7833497B680B441B789A4254D1304A72
:10043C007B6813441A782F497B680B441B789A42CB
:10044C004AD1304A7B6813441A782A497B680B449A
:10045C001B789A4219D0274A7B6813441978294A89
:10046C007B6813440A461A70264A7B6813441B782F
:10047C00002B31D1244A7B68134401221A70234A81
:10048C007B68642122F8131026E01E4A7B68134413
:10049C001B78002B1BD11D4A7B6832F81330002BC4
:1004AC001AD01A4A7B6832F81330013B99B2174ABA
:1004BC007B6822F81310154A7B6832F81330002B36
:1004CC000AD1134A7B68134401221A7004E00F4AC4
:1004DC007B68002122F813107B6801337B607B68FA
:1004EC00022B7FF775AF00BF00BF0837BD4680BD3C
:1004FC007400002078000020700000200400002010
:10050C00100000206C0000207C00002084000020E3
:10051C008000002080B483B000AF0346FB71FB79F0
:10052C00022B01D900230BE0FB79084AD35C012B89
:10053C0005D1FB79054A0021D154012300E00023A9
:10054C0018460C37BD4680BC704700BF7C000020AD
:10055C0080B483B000AF7860034A7B68136000BF3F
:10056C000C37BD4680BC70472C00002080B400AF17
:10057C00024B1B681846BD4680BC70472C000020FF
:10058C0080B483B000AF7860034A7B68136000BF0F
:10059C000C37BD4680BC70473000002080B400AFE3
:1005AC00024B1B681846BD4680BC704730000020CB
:1005BC0080B483B000AF7860034A7B68136000BFDF
:1005CC000C37BD4680BC70473400002080B400AFAF
:1005DC00024B1B681846BD4680BC70473400002097
:1005EC0080B582B000AF786039603B68002B03D0D7
:1005FC003B68012B0CD017E07B68002B0CBF012350
:10060C000023DBB21A460821094801F00EFA0BE070
:10061C007B68002B0CBF01230023DBB21A46402160
:10062C00034801F002FA00BF00BF0837BD4680BD89
:10063C000008014080B582B000AF786039603B683B
:10064C00002B03D03B68012B0CD017E07B68002BF0
:10065C000CBF01230023DBB21A461021094801F01C
:10066C00E4F90BE07B68002B0CBF01230023DBB209
:10067C001A468021034801F0D8F900BF00BF0837A3
:10068C00BD4680BD0008014080B582B000AF7860E7
:10069C0039603B68002B03D03B68012B0CD018E071
:1006AC007B68002B0CBF01230023DBB21A462021F0
:1006BC000A4801F0BAF90CE07B68002B0CBF01234F
:1006CC000023DBB21A464FF48071044801F0ADF9F7
:1006DC0000BF00BF0837BD4680BD00BF0008014009
:1006EC0080B58EB000AF78607B68484A82FB0312FD
:1006FC009210DB17D31A7B637A68444B83FB02138B
:10070C009910D317C91A0B469B000B445B00D31AE4
:10071C003B6307F11C0300221A605A609A60DA608E
:10072C0007F10C0300221A605A609A60DA60002309
:10073C00FB6228E07B6B002B03F00103B8BF5B422C
:10074C001A46FB6A9B0007F138010B4443F81C2C3A
:10075C007B6BDA0F13445B107B633B6B002B03F05A
:10076C000103B8BF5B421A46FB6A9B0007F13801D4
:10077C000B4443F82C2C3B6BDA0F13445B103B639C
:10078C00FB6A0133FB62FB6A032BD3DDFB69DBB233
:10079C001A464FF480511E4801F047F93B6ADBB210
:1007AC001A464FF400511A4801F03FF97B6ADBB24C
:1007BC001A464FF48041164801F037F9BB6ADBB298
:1007CC001A464FF40041124801F02FF9FB68DBB2D6
:1007DC001A4601210F4801F028F93B69DBB21A4691
:1007EC0002210C4801F021F97B69DBB21A46042185
:1007FC00084801F01AF9BB69DBB21A460821054812
:10080C0001F013F900BF3837BD4680BD67666666D8
:10081C0000080140000C014080B58EB000AF78603C
:10082C007B68484A82FB03129210DB17D31A7B6356
:10083C007A68444B83FB02139910D317C91A0B46E1
:10084C009B000B445B00D31A3B6307F11C03002293
:10085C001A605A609A60DA6007F10C0300221A6081
:10086C005A609A60DA600023FB6228E07B6B002BF5
:10087C0003F00103B8BF5B421A46FB6A9B0007F109
:10088C0038010B4443F81C2C7B6BDA0F13445B10C0
:10089C007B633B6B002B03F00103B8BF5B421A4632
:1008AC00FB6A9B0007F138010B4443F82C2C3B6B83
:1008BC00DA0F13445B103B63FB6A0133FB62FB6A88
:1008CC00032BD3DDFB69DBB21A4610211E4801F065
:1008DC00ACF83B6ADBB21A4620211B4801F0A5F8A4
:1008EC007B6ADBB21A464021174801F09EF8BB6ABE
:1008FC00DBB21A468021144801F097F8FB68DBB292
:10090C001A464FF48071104801F08FF83B69DBB246
:10091C001A464FF400710C4801F087F87B69DBB282
:10092C001A464FF48061084801F07FF8BB69DBB2CE
:10093C001A464FF40061044801F077F800BF3837CD
:10094C00BD4680BD67666666000C014080B588B008
:10095C0000AF786007F10C0300221A605A609A60AD
:10096C00DA600323FB6115E07B68002B03F00103C5
:10097C00B8BF5B421A46FB699B0007F120010B4490
:10098C0043F8142C7B68DA0F13445B107B60FB6913
:10099C00013BFB61FB69002BE6DABB69DBB21A4653
:1009AC004FF480510F4801F040F87B69DBB21A46D6
:1009BC004FF400510B4801F038F83B69DBB21A4692
:1009CC004FF48041074801F030F8FB68DBB21A465F
:1009DC004FF40041034801F028F800BF2037BD4612
:1009EC0080BD00BF000C014080B400AF074B00225B
:1009FC001A60074B00221A60064B00221A60064B45
:100A0C0000221A6000BFBD4680BC70472800002041
:100A1C0094000020980000209C00002080B400AFBF
:100A2C00074B01221A60074B00221A60064B00226A
:100A3C001A60064B00221A6000BFBD4680BC70478E
:100A4C002800002094000020980000209C0000202A
:100A5C0080B400AF064B01221A60064B00221A60CC
:100A6C00054B00221A6000BFBD4680BC704700BF1A
:100A7C0094000020980000209C00002080B400AF5F
:100A8C00064B00221A60064B01221A60054B00220D
:100A9C001A6000BFBD4680BC704700BF94000020A8
:100AAC00980000209C00002080B400AF064B002270
:100ABC001A60064B00221A60054B01221A6000BF17
:100ACC00BD4680BC704700BF9400002098000020F9
:100ADC009C00002080B400AF034B00221A6000BFC2
:100AEC00BD4680BC704700BF9400002080B400AFAE
:100AFC00034B00221A6000BFBD4680BC704700BF8C
:100B0C009800002080B400AF034B00221A6000BF95
:100B1C00BD4680BC704700BF9C00002080B500AF74
:100B2C00104B01221A600F4B00225A600E4B002210
:100B3C001A600D4B00225A600C4B00221A600B4BB2
:100B4C0001225A600A4B00221A60094B1B68094AA1
:100B5C001360084B1B68084A13600120FFF7F6FE70
:100B6C0000BF80BD180000208C0000202000002059
:100B7C00A8000020A4000020A000002080B500AF39
:100B8C00464B1B680A33454A1360444B1B68F92BD0
:100B9C0040F38180414B00221A60414B1B68002BB3
:100BAC0025D0404B1B68002B0CBF01230023DBB26C
:100BBC001A463C4B1A603B4B1B6800211846FFF74A
:100BCC000FFD384B1B6801211846FFF709FD00216A
:100BDC000020FFF72FFD01210020FFF72BFD002146
:100BEC000020FFF751FD01210020FFF74DFD2E4B9A
:100BFC001B68002B25D02D4B1B68002B0CBF012331
:100C0C000023DBB21A46294B1A60284B1B680021C3
:100C1C001846FFF70FFD254B1B6801211846FFF7FF
:100C2C0009FD00210020FFF7DBFC01210020FFF76C
:100C3C00D7FC00210020FFF727FD01210020FFF742
:100C4C0023FD1B4B1B68002B25D01A4B1B68002B5C
:100C5C000CBF01230023DBB21A46164B1A60154B4E
:100C6C001B6800211846FFF70FFD124B1B68012172
:100C7C001846FFF709FD00210020FFF7B1FC012108
:100C8C000020FFF7ADFC00210020FFF7D3FC012171
:100C9C000020FFF7CFFC00BF80BD00BFAC000020E0
:100CAC0094000020B000002098000020B400002028
:100CBC009C000020B800002080B58CB000AF4FF035
:100CCC00FF33FB624FF0FF33BB62964B1B68002B6C
:100CDC0002D00023FB620CE0934B1B68002B02D06C
:100CEC000123FB6205E0914B1B68002B01D0022312
:100CFC00FB628C4B5B68002B02D00023BB620CE0C8
:100D0C00894B5B68002B02D00123BB6205E0874B4B
:100D1C005B68002B01D00223BB62854B1B68FA6A0F
:100D2C009A4205D0834B00221A60814AFB6A1360F9
:100D3C00814B1B68BA6A9A4205D0804B00221A601C
:100D4C007D4ABB6A13607B4B1B680A33794A13607C
:100D5C007A4B1B680A33794A136000237B620023A9
:100D6C003B62714B5B68002B43D0754B1A68734B1D
:100D7C001B68D31A7B617B69002B09DD7B6903F24D
:100D8C00E733704A82FB03129211DB17D31A00E08F
:100D9C0000233B623B6A002B01DC01233B626A4B64
:100DAC001A68644B1B68D31A3B613B69002B09DD45
:100DBC003B6903F2E733634A82FB03129211DB17A0
:100DCC00D31A00E000237B627B6A002B01DC012339
:100DDC007B625A4B1A685A4B1B689A4259DB574B29
:100DEC0000221A60504B00225A60504B01225A606C
:100DFC004FE04E4B5B68002B4BD0544B1A684F4B5B
:100E0C001B68D31AFB61FB69002B09DDFB6903F23C
:100E1C00E7334C4A82FB03129211DB17D31A00E022
:100E2C0000233B623B6A002B01DC01233B62464BF7
:100E3C001A68404B1B68D31ABB61BB69002B09DDD8
:100E4C00BB6903F2E7333F4A82FB03129211DB17B3
:100E5C00D31A00E000237B627B6A002B01DC0123A8
:100E6C007B62364B1A68394B1B689A4211DB334B49
:100E7C0000221A602F4B00221A602C4B00225A6061
:100E8C00284B00221A60274B01225A60264B012264
:100E9C001A60254B1B68002B5AD0294B1A68254B1E
:100EAC001B68D31A7B607B68002B09DD7B6803F21F
:100EBC00E733244A82FB03129211DB17D31A00E0AA
:100ECC0000237B627B6A002B01DC01237B621E4BBF
:100EDC001A681A4B1B68D31A3B603B68002B09DD60
:100EEC003B6803F2E733174A82FB03129211DB17BC
:100EFC00D31A00E000233B623B6A002B01DC012388
:100F0C003B620C4B1A680E4B1B689A4270DB094B08
:100F1C0000221A60044B00221A60044B01221A6052
:100F2C0066E000BF18000020200000208C0000208C
:100F3C0038000020BC0000203C000020C000002035
:100F4C0034000020D34D62102C0000203000002013
:100F5C00434B1B68002B4BD0424B1A68424B1B680F
:100F6C00D31AFB60FB68002B09DDFB6803F2E73347
:100F7C003E4A82FB03129211DB17D31A00E00023C6
:100F8C007B627B6A002B01DC01237B62384B1A6885
:100F9C00384B1B68D31ABB60BB68002B09DDBB68E0
:100FAC0003F2E733314A82FB03129211DB17D31A97
:100FBC0000E000233B623B6A002B01DC01233B6217
:100FCC00294B1A68274B1B689A4211DB264B0022CF
:100FDC001A60284B00221A60214B00221A60264B03
:100FEC0000225A60244B01221A60244B01225A60C1
:100FFC00214B1B6800211846FFF7F2FA1E4B5B6869
:10100C0001211846FFF7ECFA154B1B680021184616
:10101C00FFF710FB124B5B6801211846FFF70AFB28
:10102C00164B1B6800211846FFF72EFB134B5B6811
:10103C0001211846FFF728FB7B6A002B01DC0123FA
:10104C007B623B6A002B01DC01233B62786AFFF771
:10105C0047FB386AFFF7E0FB00BF3037BD4680BD69
:10106C008C00002030000020BC000020D34D62100A
:10107C002C000020C00000201800002020000020C0
:10108C0080B500AF00F0D0F900F00CF800F092F849
:10109C0000F044F8024801F00DF9FFF787F9FEE77C
:1010AC00C400002080B590B000AF07F118032822CF
:1010BC000021184601F0AEFC3B1D00221A605A605C
:1010CC009A60DA601A610223BB610123BB621023B0
:1010DC00FB6200237B6307F11803184600F0BEFC8B
:1010EC000346002B01D000F0C9F80F237B600023CE
:1010FC00BB600023FB6000233B6100237B613B1D35
:10110C000021184600F02AFF0346002B01D000F006
:10111C00B5F800BF4037BD4680BD000080B586B035
:10112C0000AF07F1080300221A605A609A60DA6077
:10113C003B4600221A605A601D4B4FF080421A60E9
:10114C001B4B41F63F725A60194B00229A60184BA8
:10115C000922DA60164B00221A61154B00229A61A3
:10116C00134801F057F80346002B01D000F086F825
:10117C004FF48053BB6007F1080319460C4801F08B
:10118C00D5F90346002B01D000F078F800233B6022
:10119C0000237B603B461946054801F0ADFB034636
:1011AC00002B01D000F06AF800BF1837BD4680BD97
:1011BC00C400002080B586B000AF07F10803002200
:1011CC001A605A609A60DA60294B9B69284A43F08E
:1011DC0004039361264B9B6903F004037B607B68DB
:1011EC00234B9B69224A43F008039361204B9B6974
:1011FC0003F008033B603B6800224FF2F8111D48D6
:10120C0000F013FC00224FF6FF711B4800F00DFCA0
:10121C004FF2F813BB600123FB6000233B610223F8
:10122C007B6107F108031946124800F06DFA4FF67E
:10123C00FF73BB600123FB6000233B6102237B61D6
:10124C0007F1080319460C4800F05EFA4FF460638E
:10125C00BB600023FB6001233B6107F108031946C7
:10126C00044800F051FA00BF1837BD4680BD00BFDE
:10127C000010024000080140000C014080B400AF97
:10128C0072B600BFFEE7000080B485B000AF154B0E
:10129C009B69144A43F001039361124B9B6903F061
:1012AC000103BB60BB680F4BDB690E4A43F08053F4
:1012BC00D3610C4BDB6903F080537B607B680A4B7A
:1012CC005B68FB60FB6823F0E063FB60FB6843F04A
:1012DC008063FB60044AFB68536000BF1437BD4653
:1012EC0080BC7047001002400000014080B584B003
:1012FC0000AF78607B681B68B3F1804F13D10C4B47
:10130C00DB690B4A43F00103D361094BDB6903F042
:10131C000103FB60FB68002200211C2000F0BDF9DA
:10132C001C2000F0D6F900BF1037BD4680BD00BFB1
:10133C000010024080B400AFFEE780B400AFFEE7BF
:10134C0080B400AFFEE780B400AFFEE780B400AF1E
:10135C00FEE780B400AF00BFBD4680BC704780B4D0
:10136C0000AF00BFBD4680BC704780B400AF00BF6B
:10137C00BD4680BC704780B500AF00F09BF800BF45
:10138C0080BD000080B500AF024800F0DFFF00BF59
:10139C0080BD00BFC400002080B400AF00BFBD46BC
:1013AC0080BC704780B582B000AF78607B681B68EA
:1013BC00B3F1804F0CD1FFF705F8FEF7C1FE064BD9
:1013CC001B68012B02D1FFF777FC01E0FFF7D6FB7E
:1013DC0000BF0837BD4680BD28000020FFF7DCFFAA
:1013EC000B480C490C4A002302E0D458C450043377
:1013FC00C4188C42F9D3094A094C002301E013604C
:10140C000432A242FBD301F0E1FAFFF739FE704738
:10141C00000000204C000020742A00084C00002022
:10142C0010010020FEE7000080B500AF084B1B68E0
:10143C00074A43F010031360032000F023F90F2038
:10144C0000F008F8FFF720FF0023184680BD00BF0E
:10145C000020024080B582B000AF7860124B1A6851
:10146C00124B1B7819464FF47A73B3FBF1F3B2FBB2
:10147C00F3F3184600F03BF90346002B01D001238F
:10148C000EE07B680F2B0AD8002279684FF0FF30F2
:10149C0000F003F9064A7B681360002300E0012387
:1014AC0018460837BD4680BD40000020480000208B
:1014BC004400002080B400AF054B1B781A46054B46
:1014CC001B681344034A136000BFBD4680BC7047C1
:1014DC00480000200C01002080B400AF024B1B68B8
:1014EC001846BD4680BC70470C01002080B485B006
:1014FC0000AF78607B6803F00703FB600C4BDB6884
:10150C00BB60BA684FF6FF031340BB60FB681A025E
:10151C00BB68134343F0BF6343F40033BB60044A1E
:10152C00BB68D36000BF1437BD4680BC704700BF9A
:10153C0000ED00E080B400AF044BDB681B0A03F045
:10154C0007031846BD4680BC704700BF00ED00E0A5
:10155C0080B483B000AF0346FB7197F90730002BC2
:10156C000BDBFB7903F01F02064997F907305B0987
:10157C00012000FA02F241F8232000BF0C37BD46CF
:10158C0080BC704700E100E080B483B000AF03463C
:10159C003960FB7197F90730002B0ADB3B68DAB234
:1015AC000C4997F907301201D2B20B4483F800238F
:1015BC000AE03B68DAB20849FB7903F00F03043BFD
:1015CC001201D2B20B441A7600BF0C37BD4680BC58
:1015DC00704700BF00E100E000ED00E080B489B08E
:1015EC0000AFF860B9607A60FB6803F00703FB6139
:1015FC00FB69C3F10703042B28BF0423BB61FB6900
:10160C000433062B02D9FB69033B00E000237B610A
:10161C004FF0FF32BB6902FA03F3DA43BB681A409E
:10162C007B699A404FF0FF317B6901FA03F3D94390
:10163C007B680B40134318462437BD4680BC70476B
:10164C0080B582B000AF78607B68013BB3F1807FDE
:10165C0001D301230FE00A4A7B68013B53600F2141
:10166C004FF0FF30FFF790FF054B00229A60044BC0
:10167C0007221A60002318460837BD4680BD00BFFC
:10168C0010E000E080B582B000AF78607868FFF7BA
:10169C002DFF00BF0837BD4680BD80B586B000AFBA
:1016AC000346B9607A60FB7300237B61FFF742FF4E
:1016BC0078617A68B9687869FFF790FF024697F904
:1016CC000F3011461846FFF75FFF00BF1837BD46B5
:1016DC0080BD80B582B000AF0346FB7197F907302F
:1016EC001846FFF735FF00BF0837BD4680BD80B5F3
:1016FC0082B000AF78607868FFF7A2FF0346184607
:10170C000837BD4680BD000080B48BB000AF786058
:10171C00396000237B6200233B6248E101227B6A33
:10172C0002FA03F3FB613B681B68FA691340BB6167
:10173C00BA69FB699A4240F037813B685B68A34AFF
:10174C0093425ED0A14A934275D8A14A934258D095
:10175C009F4A93426FD89F4A934252D09D4A9342DC
:10176C0069D89D4A93424CD09B4A934263D89B4A7A
:10177C00934246D0994A93425DD8122B2AD8122B09
:10178C0059D801A252F823F00F180008E9170008E5
:10179C00FB1700083D180008431800084318000800
:1017AC0043180008431800084318000843180008A1
:1017BC004318000843180008431800084318000891
:1017CC00431800084318000843180008F1170008D4
:1017DC0005180008824A934213D02CE03B68DB6862
:1017EC003B6229E03B68DB6804333B6224E03B68E6
:1017FC00DB6808333B621FE03B68DB680C333B6201
:10180C001AE03B689B68002B02D104233B6213E077
:10181C003B689B68012B05D108233B627B68FA6906
:10182C001A6109E008233B627B68FA695A6103E09C
:10183C0000233B6200E000BFBB69FF2B01D87B6833
:10184C0001E07B6804337B61BB69FF2B02D87B6AA8
:10185C009B0002E07B6A083B9B003B617B691A683A
:10186C000F213B6901FA03F3DB431A40396A3B69E8
:10187C0001FA03F31A437B691A603B685B6803F057
:10188C008053002B00F09080564B9B69554A43F0D7
:10189C0001039361534B9B6903F00103BB60BB686D
:1018AC00514A7B6A9B08023352F82330FB607B6AF7
:1018BC0003F003039B000F2202FA03F3DB43FA68E5
:1018CC001340FB607B68494A93420DD07B68484AC1
:1018DC00934207D07B68474A934201D1022304E02C
:1018EC00032302E0012300E000237A6A02F00302E2
:1018FC0092009340FA681343FB603B497B6A9B0858
:10190C000233FA6841F823203B685B6803F48013C8
:10191C00002B06D0384B9A683749BB6913438B6050
:10192C0006E0354B9A68BB69DB43334913408B6047
:10193C003B685B6803F40013002B06D02E4BDA686F
:10194C002D49BB691343CB6006E02B4BDA68BB69AE
:10195C00DB4329491340CB603B685B6803F40033DD
:10196C00002B06D0244B5A682349BB6913434B60A8
:10197C0006E0214B5A68BB69DB431F4913404B609F
:10198C003B685B6803F48033002B06D01A4B1A6853
:10199C001949BB6913430B6006E0174B1A68BB6906
:1019AC00DB43154913400B607B6A01337B623B6858
:1019BC001A687B6A22FA03F3002B7FF4AFAE00BFE8
:1019CC0000BF2C37BD4680BC704700BF00003210F2
:1019DC000000311000002210000021100000121035
:1019EC0000001110001002400000014000080140EE
:1019FC00000C0140001001400004014080B485B08F
:101A0C0000AF78600B467B807B689A687B881340BC
:101A1C00002B02D00123FB7301E00023FB73FB7B43
:101A2C0018461437BD4680BC704780B483B000AFF5
:101A3C0078600B467B8013467B707B78002B03D041
:101A4C007A887B681A6103E07B881A047B681A61C8
:101A5C0000BF0C37BD4680BC7047000080B586B017
:101A6C0000AF78607B68002B01D101236CE27B68AE
:101A7C001B6803F00103002B00F08780924B5B681E
:101A8C0003F00C03042B0CD08F4B5B6803F00C039E
:101A9C00082B12D18C4B5B6803F48033B3F5803F79
:101AAC000BD1894B1B6803F40033002B6CD07B6883
:101ABC005B68002B68D1012346E27B685B68B3F559
:101ACC00803F06D1804B1B687F4A43F48033136000
:101ADC002EE07B685B68002B0CD17B4B1B687A4A31
:101AEC0023F480331360784B1B68774A23F48023EC
:101AFC0013601DE07B685B68B3F5A02F0CD1724BB3
:101B0C001B68714A43F4802313606F4B1B686E4A49
:101B1C0043F4803313600BE06B4B1B686A4A23F46D
:101B2C0080331360684B1B68674A23F4802313606F
:101B3C007B685B68002B13D0FFF7CEFC386108E0A4
:101B4C00FFF7CAFC02463B69D31A642B01D9032365
:101B5C00FAE15D4B1B6803F40033002BF0D014E06A
:101B6C00FFF7BAFC386108E0FFF7B6FC02463B69A8
:101B7C00D31A642B01D90323E6E1534B1B6803F4FE
:101B8C000033002BF0D100E000BF7B681B6803F032
:101B9C000203002B63D04C4B5B6803F00C03002B4F
:101BAC000BD0494B5B6803F00C03082B1CD1464B44
:101BBC005B6803F48033002B16D1434B1B6803F096
:101BCC000203002B05D07B681B69012B01D001237C
:101BDC00BAE13D4B1B6823F0F8027B685B69DB00C4
:101BEC00394913430B603AE07B681B69002B20D00A
:101BFC00364B01221A60FFF76FFC386108E0FFF7E3
:101C0C006BFC02463B69D31A022B01D903239BE1DF
:101C1C002D4B1B6803F00203002BF0D02A4B1B68E2
:101C2C0023F0F8027B685B69DB00274913430B60E8
:101C3C0015E0264B00221A60FFF74EFC386108E0D5
:101C4C00FFF74AFC02463B69D31A022B01D9032346
:101C5C007AE11D4B1B6803F00203002BF0D17B686B
:101C6C001B6803F00803002B3AD07B689B69002BA0
:101C7C0019D0174B01221A60FFF72EFC386108E0CF
:101C8C00FFF72AFC02463B69D31A022B01D9032326
:101C9C005AE10D4B5B6A03F00203002BF0D00120DC
:101CAC0000F09AFA1CE00A4B00221A60FFF714FCB1
:101CBC0038610FE0FFF710FC02463B69D31A022B88
:101CCC0008D9032340E100BF00100240000042424B
:101CDC00800442429E4B5B6A03F00203002BE9D165
:101CEC007B681B6803F00403002B00F0A680002324
:101CFC00FB75974BDB6903F08053002B0DD1944B94
:101D0C00DB69934A43F08053D361914BDB6903F059
:101D1C008053BB60BB680123FB758E4B1B6803F4BF
:101D2C008073002B18D18B4B1B688A4A43F4807349
:101D3C001360FFF7D1FB386108E0FFF7CDFB0246DB
:101D4C003B69D31A642B01D90323FDE0814B1B683B
:101D5C0003F48073002BF0D07B68DB68012B06D179
:101D6C007B4B1B6A7A4A43F0010313622DE07B68BC
:101D7C00DB68002B0CD1764B1B6A754A23F00103F0
:101D8C001362734B1B6A724A23F0040313621CE048
:101D9C007B68DB68052B0CD16D4B1B6A6C4A43F0DE
:101DAC00040313626A4B1B6A694A43F00103136212
:101DBC000BE0674B1B6A664A23F001031362644B0A
:101DCC001B6A634A23F0040313627B68DB68002BF5
:101DDC0015D0FFF781FB38610AE0FFF77DFB024667
:101DEC003B69D31A41F28832934201D90323ABE009
:101DFC00574B1B6A03F00203002BEED014E0FFF7E5
:101E0C006BFB38610AE0FFF767FB02463B69D31AAC
:101E1C0041F28832934201D9032395E04C4B1B6A63
:101E2C0003F00203002BEED1FB7D012B05D1484BB7
:101E3C00DB69474A23F08053D3617B68DB69002B55
:101E4C0000F08180424B5B6803F00C03082B61D0DF
:101E5C007B68DB69022B46D13F4B00221A60FFF7EF
:101E6C003BFB386108E0FFF737FB02463B69D31AAE
:101E7C00022B01D9032367E0354B1B6803F0007379
:101E8C00002BF0D17B681B6AB3F5803F08D1304B37
:101E9C005B6823F400327B689B682D4913434B60CD
:101EAC002B4B5B6823F474127B68196A7B685B6A42
:101EBC000B43274913434B60274B01221A60FFF752
:101ECC000BFB386108E0FFF707FB02463B69D31AAE
:101EDC00022B01D9032337E01D4B1B6803F0007361
:101EEC00002BF0D02FE01C4B00221A60FFF7F4FA05
:101EFC00386108E0FFF7F0FA02463B69D31A022B6F
:101F0C0001D9032320E0124B1B6803F00073002B54
:101F1C00F0D118E07B68DB69012B01D1012313E0C0
:101F2C000B4B5B68FB60FB6803F480327B681B6ABD
:101F3C009A4206D1FB6803F470127B685B6A9A4282
:101F4C0001D0012300E0002318461837BD4680BDA0
:101F5C0000100240007000406000424280B584B026
:101F6C0000AF786039607B68002B01D10123D0E091
:101F7C006A4B1B6803F007033A689A4210D9674B07
:101F8C001B6823F0070265493B6813430B60634BE6
:101F9C001B6803F007033A689A4201D00123B8E0AA
:101FAC007B681B6803F00203002B20D07B681B6846
:101FBC0003F00403002B05D0594B5B68584A43F4DB
:101FCC00E06353607B681B6803F00803002B05D0AB
:101FDC00534B5B68524A43F460535360504B5B68FD
:101FEC0023F0F0027B689B684D4913434B607B6880
:101FFC001B6803F00103002B40D07B685B68012B4E
:10200C0007D1474B1B6803F40033002B15D1012378
:10201C007FE07B685B68022B07D1414B1B6803F0A8
:10202C000073002B09D1012373E03D4B1B6803F0B7
:10203C000203002B01D101236BE0394B5B6823F0C9
:10204C0003027B685B68364913434B60FFF744FA25
:10205C00F8600AE0FFF740FA0246FB68D31A41F237
:10206C008832934201D9032353E02D4B5B6803F074
:10207C000C027B685B689B009A42EBD1274B1B6878
:10208C0003F007033A689A4210D2244B1B6823F0E2
:10209C00070222493B6813430B60204B1B6803F07B
:1020AC0007033A689A4201D0012332E07B681B682F
:1020BC0003F00403002B08D0194B5B6823F4E06297
:1020CC007B68DB68164913434B607B681B6803F025
:1020DC000803002B09D0124B5B6823F460527B6819
:1020EC001B69DB000E4913434B6000F021F80246DC
:1020FC000B4B5B681B0903F00F030A49CB5C22FAFC
:10210C0003F3094A1360094B1B681846FFF7A2F941
:10211C00002318461037BD4680BD00BF002002408A
:10212C0000100240482A0008400000204400002013
:10213C0080B487B000AF0023FB600023BB6000239A
:10214C007B6100237B6000233B611E4B5B68FB6063
:10215C00FB6803F00C03042B02D0082B03D027E000
:10216C00194B3B6127E0FB689B0C03F00F03174AEC
:10217C00D35C7B60FB6803F48033002B10D0114BD5
:10218C005B685B0C03F00103114AD35CBB607B689A
:10219C000D4A02FB03F2BB68B2FBF3F37B6104E074
:1021AC007B680C4A02FB03F37B617B693B6102E0B9
:1021BC00054B3B6100BF3B6918461C37BD4680BCD4
:1021CC00704700BF0010024000127A00582A000825
:1021DC00682A000800093D0080B485B000AF786023
:1021EC000A4B1B680A4AA2FB03235B0A7A6802FBB0
:1021FC0003F3FB6000BFFB685A1EFA60002BF9D199
:10220C0000BF00BF1437BD4680BC704740000020A3
:10221C00D34D621080B582B000AF78607B68002B24
:10222C0001D1012341E07B6893F83D30DBB2002BF8
:10223C0006D17B68002283F83C207868FFF756F8BB
:10224C007B68022283F83D207B681A687B68043324
:10225C001946104600F056FA7B68012283F8462096
:10226C007B68012283F83E207B68012283F83F20A3
:10227C007B68012283F840207B68012283F841208F
:10228C007B68012283F842207B68012283F843207B
:10229C007B68012283F844207B68012283F8452067
:1022AC007B68012283F83D20002318460837BD4681
:1022BC0080BD000080B485B000AF78607B6893F877
:1022CC003D30DBB2012B01D0012335E07B680222CB
:1022DC0083F83D207B681B68DA687B681B6842F0DA
:1022EC000102DA607B681B68164A934209D07B684E
:1022FC001B68B3F1804F04D07B681B68124A934271
:10230C0011D17B681B689B6803F00703FB60FB68BB
:10231C00062B10D07B681B681A687B681B6842F020
:10232C0001021A6007E07B681B681A687B681B68EF
:10233C0042F001021A60002318461437BD4680BCD7
:10234C00704700BF002C01400004004080B584B0F1
:10235C0000AF78607B681B68DB68FB607B681B6880
:10236C001B69BB60BB6803F00203002B20D0FB6829
:10237C0003F00203002B1BD07B681B686FF002027A
:10238C001A617B6801221A777B681B689B6903F0D2
:10239C000303002B03D0786800F098F905E0786807
:1023AC0000F08BF9786800F09AF97B6800221A77B4
:1023BC00BB6803F00403002B20D0FB6803F004037C
:1023CC00002B1BD07B681B686FF004021A617B68C2
:1023DC0002221A777B681B689B6903F44073002BFD
:1023EC0003D0786800F072F905E0786800F065F9C0
:1023FC00786800F074F97B6800221A77BB6803F0E8
:10240C000803002B20D0FB6803F00803002B1BD023
:10241C007B681B686FF008021A617B6804221A77CC
:10242C007B681B68DB6903F00303002B03D078681F
:10243C0000F04CF905E0786800F03FF9786800F09E
:10244C004EF97B6800221A77BB6803F01003002B4F
:10245C0020D0FB6803F01003002B1BD07B681B689B
:10246C006FF010021A617B6808221A777B681B6870
:10247C00DB6903F44073002B03D0786800F026F975
:10248C0005E0786800F019F9786800F028F97B68A5
:10249C0000221A77BB6803F00103002B0CD0FB68F9
:1024AC0003F00103002B07D07B681B686FF001025F
:1024BC001A617868FEF776FFBB6803F08003002B87
:1024CC000CD0FB6803F08003002B07D07B681B68E3
:1024DC006FF080021A61786800F06FFABB6803F045
:1024EC004003002B0CD0FB6803F04003002B07D0FB
:1024FC007B681B686FF040021A61786800F0F8F88E
:10250C00BB6803F02003002B0CD0FB6803F0200306
:10251C00002B07D07B681B686FF020021A6178686B
:10252C0000F042FA00BF1037BD4680BD80B584B0C4
:10253C0000AF786039600023FB737B6893F83C3004
:10254C00012B01D10223B4E07B68012283F83C20EB
:10255C007B68022283F83D207B681B689B68BB600C
:10256C00BB6823F07703BB60BB6823F47F43BB607D
:10257C007B681B68BA689A603B681B68B3F5005FA0
:10258C003ED0B3F5005F00F28780B3F5805F00F0BA
:10259C008680B3F5805F7FD8702B1AD0702B7BD8D8
:1025AC00602B50D0602B77D8502B3CD0502B73D84D
:1025BC00402B58D0402B6FD8302B64D0302B6BD89D
:1025CC00202B60D0202B67D8002B5CD0102B5AD03E
:1025DC0062E07B6818683B6899683B685A683B689E
:1025EC00DB6800F06AF97B681B689B68BB60BB68A2
:1025FC0043F07703BB607B681B68BA689A604FE056
:10260C007B6818683B6899683B685A683B68DB686C
:10261C0000F053F97B681B689A687B681B6842F46E
:10262C0080429A603CE07B6818683B6859683B685C
:10263C00DB681A4600F0CAF87B681B685021184604
:10264C0000F021F92CE07B6818683B6859683B68FE
:10265C00DB681A4600F0E8F87B681B6860211846B6
:10266C0000F011F91CE07B6818683B6859683B68FE
:10267C00DB681A4600F0AAF87B681B6840211846F4
:10268C0000F001F90CE07B681A683B681B6819467E
:10269C00104600F0F8F803E00123FB7300E000BFE4
:1026AC007B68012283F83D207B68002283F83C2064
:1026BC00FB7B18461037BD4680BD80B483B000AF9D
:1026CC00786000BF0C37BD4680BC704780B483B0C7
:1026DC0000AF786000BF0C37BD4680BC704780B43B
:1026EC0083B000AF786000BF0C37BD4680BC70472C
:1026FC0080B483B000AF786000BF0C37BD4680BC9F
:10270C007047000080B485B000AF786039607B689A
:10271C001B68FB607B682B4A934207D07B68B3F144
:10272C00804F03D07B68284A934208D1FB6823F082
:10273C007003FB603B685B68FA681343FB607B6863
:10274C00204A934207D07B68B3F1804F03D07B685B
:10275C001D4A934208D1FB6823F44073FB603B682D
:10276C00DB68FA681343FB60FB6823F080023B686C
:10277C005B691343FB607B68FA681A603B689A6874
:10278C007B68DA623B681A687B689A627B680D4AE0
:10279C00934203D13B681A697B681A637B680122F8
:1027AC005A617B681B6903F00103002B05D07B6821
:1027BC001B6923F001027B681A6100BF1437BD4608
:1027CC0080BC7047002C01400004004080B487B0EE
:1027DC0000AFF860B9607A60FB681B6A7B61FB68CC
:1027EC001B6A23F00102FB681A62FB689B693B6160
:1027FC003B6923F0F0033B617B681B013A6913438F
:10280C003B617B6923F00A037B617A69BB681343E4
:10281C007B61FB683A699A61FB687A691A6200BF4E
:10282C001C37BD4680BC704780B487B000AFF860E1
:10283C00B9607A60FB681B6A7B61FB681B6A23F0DA
:10284C001002FB681A62FB689B693B613B6923F4CD
:10285C0070433B617B681B033A6913433B617B69A3
:10286C0023F0A0037B61BB681B017A6913437B6176
:10287C00FB683A699A61FB687A691A6200BF1C3777
:10288C00BD4680BC704780B485B000AF78603960BD
:10289C007B689B68FB60FB6823F07003FB603A6805
:1028AC00FB68134343F00703FB607B68FA689A608C
:1028BC0000BF1437BD4680BC704780B487B000AFF2
:1028CC00F860B9607A603B60FB689B687B617B69F0
:1028DC0023F47F437B613B681A027B681A43BB6815
:1028EC0013437A6913437B61FB687A699A6000BF72
:1028FC001C37BD4680BC704780B485B000AF786093
:10290C0039607B6893F83C30012B01D1022341E004
:10291C007B68012283F83C207B68022283F83D20EF
:10292C007B681B685B68FB607B681B689B68BB6093
:10293C00FB6823F07003FB603B681B68FA68134369
:10294C00FB607B681B68FA685A607B681B68144ADA
:10295C00934209D07B681B68B3F1804F04D07B682D
:10296C001B68104A93420CD1BB6823F08003BB60F8
:10297C003B685B68BA681343BB607B681B68BA68CA
:10298C009A607B68012283F83D207B68002283F8E3
:10299C003C20002318461437BD4680BC704700BF4E
:1029AC00002C01400004004080B483B000AF78607C
:1029BC0000BF0C37BD4680BC704780B483B000AFFD
:1029CC00786000BF0C37BD4680BC704770B50026E0
:1029DC000C4D0D4C641BA410A64209D100F022F83A
:1029EC0000260A4D0A4C641BA410A64205D170BDEA
:1029FC0055F8043B98470136EEE755F8043B9847E9
:102A0C000136F2E76C2A00086C2A00086C2A0008D0
:102A1C00702A000803460244934200D1704703F821
:102A2C00011BF9E7F8B500BFF8BC08BC9E4670471F
:0C2A3C00F8B500BFF8BC08BC9E4670470F
:102A48000000000000000000010203040607080956
:102A580002030405060708090A0B0C0D0E0F1010D7
:042A68000102000067
:042A6C00310100082C
:042A70000D0100084C
:102A74000100000000080140000801400008014076
:102A84000002000400080000010000000000000033
:102A94000000000001000000010000008813000095
:102AA400D0070000B80B0000FFFFFFFFFFFFFFFF90
:0C2AB40000127A00100000000100000079
:04000005080013E9F3
:00000001FF
